:020000040800F2
:1000000000000120050300080B030008110300088D
:1000100033030008390300085B03000800000000F8
:100020000000000000000000000000007D03000848
:100030008303000800000000890300088F03000804
:10004000AD030008AD030008AD030008AD030008D0
:10005000AD030008AD030008AD030008AD030008C0
:10006000AD030008AD030008AD030008AD030008B0
:10007000AD030008AD030008AD030008AD030008A0
:10008000AD030008AD030008AD0300080000000048
:10009000000000000000000000000000AD030008A8
:1000A000AD030008AD030008AD030008AD03000870
:1000B000AD030008AD030008AD030008AD03000860
:1000C000AD030008AD030008AD030008AD03000850
:1000D000AD030008AD030008AD03000800000000F8
:1000E000AD030008AD030008AD03000800000000E8
:1000F000000000000000000000000000AD03000848
:1001000000000000AD030008AD030008AD030008C7
:1001100000000000000000000000000000000000DF
:10012000AD030008AD030008AD030008AD030008EF
:10013000AD03000800000000000000000000000007
:10014000000000000000000000000000AD030008F7
:10015000AD030008AD030008AD030008AD030008BF
:10016000AD030008AD03000800000000000000001F
:10017000000000000000000000000000000000007F
:1001800000000000AD0300080000000000000000B7
:10019000AD03000880B596B000AF00F037F94F4BC3
:1001A0007B6524E07B6D1A1D7A651B683B647B6D63
:1001B0001A1D7A651B68FB637B6D1A1D7A651B68C7
:1001C000BB633B6C7B63FB6B3B63BB6BFB623B6B5F
:1001D000BB6207E07A6B131D7B63BB6A191DB962B2
:1001E00012681A60FA6ABB6A9A42F3D800BF7B6D44
:1001F0003B4A9342D6D33B4B3B651AE03B6D1A1DFD
:100200003A651B68BB643B6D1A1D3A651B687B64CD
:10021000BB6C7B627B6C3B627B6AFB6104E0FB69CD
:100220001A1DFA6100221A603A6AFB699A42F6D8EE
:1002300000BF3B6D2C4A9342E0D300F0F5F83A1D25
:1002400007F108031146184600F0CEF8274A284B5C
:10025000D31A9B103B610023FB6007E0244AFB6834
:1002600052F823309847FB680133FB603A69FB681A
:100270009A42F3DC1F4A204BD31A9B103B610023A8
:10028000FB6007E01C4AFB6852F823309847FB6884
:100290000133FB603A69FB689A42F3DC00BFBB683C
:1002A0007A681146184600F06BF9F864134A144B4B
:1002B000D31A9B10BB61BB697B6108E07B69013B82
:1002C0000F4A52F8233098477B69013B7B617B6979
:1002D000002BF3DC00BFF86C00F080F8B4030008DA
:1002E000CC030008CC030008DC030008DC03000892
:1002F000DC030008DC030008DC030008DC03000862
:10030000DC0300082548004700BF80B400AFFEE7CB
:100310001EF0040F0CBFEFF30880EFF30980714665
:100320001F4A104700BF80B483B000AF78603960C7
:10033000FEE780B400AFFEE71EF0040F0CBFEFF342
:100340000880EFF309807146164A104700BF80B459
:1003500083B000AF78603960FEE71EF0040F0CBF79
:10036000EFF30880EFF3098071460F4A104700BF92
:1003700080B483B000AF78603960FEE780B400AF2E
:10038000FEE780B400AFFEE780B400AFFEE780B4C4
:1003900000AF00BFBD4680BC70470000950100085B
:1003A000270300084F0300087103000880B400AF62
:0203B000FEE766
:1003B40004100008000000200C00002004100008B5
:1003C40000000010000000100C00002010000020AD
:0803D400000000100000001001
:1003DC0080B582B000AF786000F03CF880B483B098
:1003EC0000AF786039607B6801221A603B68034A71
:1003FC001A6000BF0C37BD4680BC7047000000205F
:10040C0080B500AF00F02AF8024B034A9A6000BF97
:10041C0080BD00BF00ED00E00000000880B500AF1B
:10042C0000F028F800BF80BD80B400AFBFF34F8F41
:10043C0000BF064BDB6803F4E0620449044B134332
:10044C00CB60BFF34F8F00BF00BFFDE700ED00E0B6
:10045C000400FA0580B500AFFFF7E6FF80B400AFEB
:10046C00034B4FF000629A6000BFBD4680BC7047E2
:10047C0000ED00E080B487B000AF00233B610023A7
:10048C007B610223FB600023BB6002237B60344B47
:10049C009B6803F00C033B613B69082B11D03B6953
:1004AC00082B44D83B69002B03D03B69042B04D0A8
:1004BC003DE02C4B2C4A1A603DE02A4B2B4A1A602B
:1004CC0039E0274B5B689B0D03F00103BB60244BA9
:1004DC005B6803F03F037B60BB68002B0CD0234AA6
:1004EC007B68B2FBF3F31E4A52689209C2F308020E
:1004FC0002FB03F37B610BE01B4A7B68B2FBF3F35B
:10050C00174A52689209C2F3080202FB03F37B619B
:10051C00134B5B681B0C03F0030301335B00FB60A4
:10052C007A69FB68B2FBF3F30E4A136003E00D4BE0
:10053C000D4A1A6000BF0A4B9B681B0903F00F039E
:10054C000B4AD35C3B61074B1A683B6922FA03F3F5
:10055C00044A136000BF1C37BD4680BC704700BF07
:10056C0000380240080000200024F40000127A0039
:10057C00F40F000880B582B000AF00F029FA00201B
:10058C0000F034FA012000F031FA00F083FA002375
:10059C007B6000237B6009E07B68D9B200230122D9
:1005AC00412000F0FFFA7B6801337B607B68062BEF
:1005BC00F2D900F09DFAFCE780B582B000AF00F0F4
:1005CC00E7FA0346FB70FB780B2B00F2CB8101A200
:1005DC0052F823F01106000859060008A10600087D
:1005EC00E90600083107000879070008C107000870
:1005FC00090800085108000899080008E1080008DB
:10060C002909000800220021412000F0B5FB01223D
:10061C000121412000F0B0FB01220221412000F019
:10062C00ABFB00220321412000F0A6FB0022042199
:10063C00412000F0A1FB00220521412000F09CFB91
:10064C0000220621412000F097FBAFE1012200219E
:10065C00412000F091FB01220121412000F08CFB94
:10066C0000220221412000F087FB012203214120BE
:10067C0000F082FB01220421412000F07DFB0022CE
:10068C000521412000F078FB01220621412000F0D9
:10069C0073FB8BE101220021412000F06DFB012254
:1006AC000121412000F068FB01220221412000F0D1
:1006BC0063FB01220321412000F05EFB0022042198
:1006CC00412000F059FB00220521412000F054FB91
:1006DC0001220621412000F04FFB67E1002200219E
:1006EC00412000F049FB01220121412000F044FB94
:1006FC0001220221412000F03FFB00220321412076
:10070C0000F03AFB00220421412000F035FB0122CD
:10071C000521412000F030FB01220621412000F090
:10072C002BFB43E101220021412000F025FB00229C
:10073C000121412000F020FB01220221412000F088
:10074C001BFB01220321412000F016FB0022042197
:10075C00412000F011FB01220521412000F00CFB8F
:10076C0001220621412000F007FB1FE1012200219C
:10077C00412000F001FB00220121412000F0FCFA95
:10078C0001220221412000F0F7FA0122032141202D
:10079C0000F0F2FA01220421412000F0EDFA0122CE
:1007AC000521412000F0E8FA01220621412000F049
:1007BC00E3FAFBE001220021412000F0DDFA0122E6
:1007CC000121412000F0D8FA01220221412000F041
:1007DC00D3FA00220321412000F0CEFA002204219A
:1007EC00412000F0C9FA00220521412000F0C4FA92
:1007FC0001220621412000F0BFFAD7E0012200219E
:10080C00412000F0B9FA01220121412000F0B4FA94
:10081C0001220221412000F0AFFA012203214120E4
:10082C0000F0AAFA01220421412000F0A5FA0122CD
:10083C000521412000F0A0FA01220621412000F000
:10084C009BFAB3E001220021412000F095FA01222D
:10085C000121412000F090FA01220221412000F0F8
:10086C008BFA00220321412000F086FA0022042199
:10087C00412000F081FA01220521412000F07CFA90
:10088C0001220621412000F077FA8FE0012200219D
:10089C00412000F071FA01220121412000F06CFA94
:1008AC0001220221412000F067FA0122032141209C
:1008BC0000F062FA01220421412000F05DFA0122CD
:1008CC000521412000F058FA00220621412000F0B9
:1008DC0053FA6BE001220021412000F04DFA012275
:1008EC000121412000F048FA01220221412000F0B0
:1008FC0043FA01220321412000F03EFA0122042197
:10090C00412000F039FA01220521412000F034FA8F
:10091C0000220621412000F02FFA47E0012200219D
:10092C00412000F029FA01220121412000F024FA93
:10093C0001220221412000F01FFA01220321412053
:10094C0000F01AFA01220421412000F015FA0122CC
:10095C000521412000F010FA00220621412000F070
:10096C000BFA23E001220021412000F005FA0122BC
:10097C000121412000F000FA01220221412000F067
:10098C00FBF901220321412000F0F6F90122042198
:10099C00412000F0F1F901220521412000F0ECF991
:1009AC0000220621412000F0E7F900BF00237B6004
:1009BC0002E07B6801337B607B68044A9342F8D980
:1009CC0000BF00BF0837BD4680BD00BF7F1A0600C0
:1009DC0080B400AF044B1B68034A43F0010313605F
:1009EC0000BFBD4680BC70470038024080B485B063
:1009FC0000AF0346FB71FB795B09FB73FB7903F0DA
:100A0C001F03BB73FB7B032B36D801A252F823F0D8
:100A1C002D0A0008430A0008590A00086F0A00084A
:100A2C00184B1B68BA7B012101FA02F21146154AD8
:100A3C000B43136021E0144B1B68BA7B012101FAB4
:100A4C0002F21146104A0B43136016E00F4B1B6861
:100A5C00BA7B012101FA02F211460C4A0B431360D6
:100A6C000BE00B4B1B68BA7B012101FA02F2114619
:100A7C00074A0B43136000E000BF00BF1437BD46AC
:100A8C0080BC704730380240343802404038024055
:100A9C004438024080B582B000AF0023FB710023C4
:100AAC00FB7108E0F97901230022422000F07AF86A
:100ABC00FB790133FB71FB79022BF3D90623FB7114
:100ACC000EE0F97900230122422000F06BF8FB794B
:100ADC0001221946422000F04FF9FB790133FB71DA
:100AEC00FB79092BEDD900BF00BF0837BD4680BD8F
:100AFC0080B582B000AF0623FB713EE0FB7900228B
:100B0C001946422000F038F90023BB7129E0BB796B
:100B1C001946422000F0FCF90346002B1ED100239D
:100B2C003B6002E03B6801333B603B681D2BF9D90D
:100B3C00BB791946422000F0EBF90346002B0DD18E
:100B4C00FB791A4652001344DAB2BB791344DBB278
:100B5C00123BDAB20D4B1A70FFF72EFDBB79013345
:100B6C00BB71BB79022BD2D9FB79012219464220E9
:100B7C0000F002F9FB790133FB71FB79092BBDD92C
:100B8C0000BF00BF0837BD4680BD00BF0D00002070
:100B9C0080B400AF024B1B781846BD4680BC704732
:100BAC000D00002090B482B000AF044608461146F8
:100BBC001A462346FB710346BB710B467B711346E9
:100BCC003B71FB79413B032B00F2C08001A252F830
:100BDC0023F000BFF10B00084B0C0008A50C00081B
:100BEC00FF0C00085C4B1B68BA795200032101FA18
:100BFC0002F2D2431146584A0B401360564B1B6805
:100C0C007979BA79520001FA02F21146524A0B4331
:100C1C001360524B1B68BA79012101FA02F2D243DC
:100C2C0011464E4A0B4013604C4B1B683979BA790C
:100C3C0001FA02F21146494A0B43136086E0484B15
:100C4C001B68BA795200032101FA02F2D243114611
:100C5C00434A0B401360424B1B687979BA795200B6
:100C6C0001FA02F211463E4A0B4313603D4B1B68DE
:100C7C00BA79012101FA02F2D2431146394A0B40EA
:100C8C001360384B1B683979BA7901FA02F21146B4
:100C9C00344A0B43136059E0334B1B68BA7952004A
:100CAC00032101FA02F2D24311462F4A0B40136082
:100CBC002D4B1B687979BA79520001FA02F2114670
:100CCC00294A0B431360294B1B68BA79012101FA9D
:100CDC0002F2D2431146254A0B401360234B1B688A
:100CEC003979BA7901FA02F21146204A0B431360A2
:100CFC002CE01F4B1B68BA795200032101FA02F257
:100D0C00D24311461A4A0B401360194B1B68797970
:100D1C00BA79520001FA02F21146154A0B431360DC
:100D2C00144B1B68BA79012101FA02F2D243114625
:100D3C00104A0B4013600F4B1B683979BA7901FAD2
:100D4C0002F211460B4A0B43136000BF00BF083779
:100D5C00BD4690BC704700BF00000240040002403A
:100D6C00000402400404024000080240040802404F
:100D7C00000C0240040C024080B483B000AF034668
:100D8C00FB710B46BB7113467B71FB79413B032B0B
:100D9C0000F2A88001A252F823F000BFB90D0008A0
:100DAC00070E0008550E0008A30E0008504B1B68D8
:100DBC00BA795200012101FA02F21A40BB795B00A8
:100DCC0022FA03F3002B16D04A4B1B68BA79012187
:100DDC0001FA02F2D2431146464A0B401360454BCE
:100DEC001B687979BA7901FA02F21146414A0B4330
:100DFC001360002377E0012375E03F4B1B68BA7941
:100E0C005200012101FA02F21A40BB795B0022FA6E
:100E1C0003F3002B16D0394B1B68BA79012101FA68
:100E2C0002F2D2431146354A0B401360334B1B6818
:100E3C007979BA7901FA02F21146304A0B43136000
:100E4C00002350E001234EE02D4B1B68BA79520071
:100E5C00012101FA02F21A40BB795B0022FA03F37A
:100E6C00002B16D0274B1B68BA79012101FA02F22C
:100E7C00D2431146234A0B401360224B1B687979ED
:100E8C00BA7901FA02F211461E4A0B431360002391
:100E9C0029E0012327E01C4B1B68BA795200012181
:100EAC0001FA02F21A40BB795B0022FA03F3002B21
:100EBC0016D0164B1B68BA79012101FA02F2D24303
:100ECC001146124A0B401360104B1B687979BA79A2
:100EDC0001FA02F211460D4A0B431360002302E0A3
:100EEC00012300E000BF18460C37BD4680BC70479C
:100EFC0000000240140002400004024014040240AE
:100F0C000008024014080240000C0240140C02407D
:100F1C0080B483B000AF03460A46FB711346BB7125
:100F2C00FB79413B032B4FD801A252F823F000BFB1
:100F3C004D0F00086F0F0008910F0008B30F000849
:100F4C00244B1B68DAB2BB79012101FA03F3DBB243
:100F5C001340DBB25AB2204B1A701F4B93F900307E
:100F6C0032E01E4B1B68DAB2BB79012101FA03F3A4
:100F7C00DBB21340DBB25AB2174B1A70164B93F913
:100F8C00003021E0164B1B68DAB2BB79012101FA63
:100F9C0003F3DBB21340DBB25AB20F4B1A700E4B99
:100FAC0093F9003010E00F4B1B68DAB2BB790121CA
:100FBC0001FA03F3DBB21340DBB25AB2064B1A70E0
:100FCC00054B93F90030FFE718460C37BD4680BC43
:100FDC00704700BF100002400E00002010040240B9
:100FEC0010080240100C024000000000000000003D
:080FFC000102030406070809C5
:0C1004000C000020000000000024F4009C
:040000050800019559
:00000001FF
